:020000040800F2
:1000000000610020450200084F5C0008894C000890
:100010004D5C000855250008855D000800000000C3
:10002000000000000000000000000000535C000819
:100030007F25000800000000515C0008555C0008A6
:100040005F0200085F0200085F0200085F0200080C
:100050005F0200085F0200085F0200085F020008FC
:100060005F0200085F0200085F0200085F020008EC
:100070005F0200085F0200085F0200085F020008DC
:100080005F0200085F0200085F0200085F020008CC
:100090005F0200085F0200085F0200085F020008BC
:1000A0005F0200085F0200085F0200085F020008AC
:1000B0005F0200085F0200085F0200085F0200089C
:1000C0005F0200085F0200085F0200085F0200088C
:1000D0005F0200085F0200085F0200085F0200087C
:1000E0005F0200085F0200085F0200085F0200086C
:1000F0005F0200085F0200085F0200085F0200085C
:100100005F0200085F0200085F0200085F0200084B
:100110005F0200085F0200085F0200085F0200083B
:100120005F0200085F0200085F0200085F0200082B
:100130005F02000800000000000000005F020008ED
:100140005F0200085F0200085F0200085F0200080B
:100150005F0200085F0200085F0200085F020008FB
:100160005F0200085F0200085F0200085F020008EB
:100170005F0200085F0200080000000000000000AD
:100180005F0200085F020008DFF814D001F0FCF8FD
:1001900002F0BCF900480047A19C000802F0D8F822
:1001A00000610020FEB442464B4654465D463EB4D4
:1001B00000F075F83EBC90469946A246AB46FEBCA0
:1001C00000F030F880EC200B7047C0EC200B70473B
:1001D00090EC200B7047D0EC200B704785460D98B3
:1001E000DDF838E00F9B5DF8042B20E90C009DE85A
:1001F000FE1F854601BD4DF808ED0DF1080E4DF8C6
:1002000004ED2DE9FF1F002102B4694681B001F021
:1002100006F8DDF840E012B070470000FCBA0000BC
:1002200084C200004DF808ED0DF1080E4DF804ED04
:100230002DE9FF1F002102B4694681B001F056B8D4
:10024000704700BF0648804706480047FEE7FEE7C4
:10025000FEE7FEE7FEE7FEE7FEE7FEE7FEE7FEE776
:10026000695D00088901000870B5054600F0BFF916
:100270000446284600F0C0F838B12946A06900F0CD
:1002800092F9C169491CC16102E0A5F12000C16970
:10029000012902D1A1698161A061012070BD70B501
:1002A00000F0A5F9846905460CB900F08BF804F15B
:1002B0002006304600F0A0F868B1E0692668012801
:1002C00002D0401EE0610BE0A16904F17800A96151
:1002D00000F067F804E0E069012801D1A069A86195
:1002E000304670BD002300F0C3B92DE9F05F05462C
:1002F000002092469B4688460646814640241BE0E5
:10030000284641464746224600F0A5FC53465A4639
:10031000C01A914110D311461846224600F08CFCB9
:100320002D1A67EB01084F4622460120002100F0FC
:1003300083FC17EB00094E41201EA4F10104DFDC11
:10034000484631462A464346BDE8F09F40EA01034D
:100350009B0703D009E008C9121F08C0042AFAD27B
:1003600003E011F8013B00F8013B521EF9D270473F
:10037000D2B201E000F8012B491EFBD270470022E7
:10038000F6E710B513460A4604461946FFF7F0FF94
:10039000204610BD421C10F8011B0029FBD1801A19
:1003A000704710B5044600F022F9783CC069214638
:1003B00000F0F0FC002804D12046BDE8104009F010
:1003C00047BC10BD10B500F012F9016919B1002247
:1003D0000261884701E080688047AFF30080000039
:1003E00002680B689A4205D140684968884201D189
:1003F000012070470020704710B50349FFF7F0FF58
:1004000080F0010010BD0000A0B300082DE9F14DFF
:10041000D0E90C8581B00646D0F828A000F0E7F8B6
:100420000446A6F12007304600F099F83046FFF761
:10043000E3FF08B1606800E0B868206100F0A6FD45
:10044000BDE8FC8D00F08BF86669BE4202D100F079
:1004500045F80DE03069606100F040F805E000F01B
:100460007EF8FFF7AFFF00F039F860693061666130
:1004700000273C4606F1200B11E02E686B46002257
:100480003146584600F0F6FC08B100F08DFC3146CC
:10049000104807F023FD00B101274544641C544572
:1004A000EBD38FB1684607F0F9FE042000F02EFC74
:1004B000694607F0EBFE0446684607F0FEFE064A72
:1004C0000449204600F0BBFC584600F02CF800F030
:1004D00005F8B5E72CB50008BB82000870B500F040
:1004E00086F8446905460CB9FFF76CFF6069401E49
:1004F000606117D104F120063046FFF77DFF2169C6
:100500006961E56928B104F178002668FFF749FFC1
:1005100001E000202061002D04D13046BDE870408C
:1005200000F02ABF70BD70B5054600F060F80446C3
:100530001DB12846FFF760FF08B1A06801E055F83B
:10054000140C206101202073BDE87040FFF73ABF12
:10055000040001D000F003F82046FFF7E4FF70B577
:100560000546466A00F043F804462846FFF744FF74
:1005700020B12946606900F016F807E0A5F12000D7
:10058000C169491EC1612168491E21604169491C38
:100590004161016911B9616901616061284600F03A
:1005A000BBFE304670BD70B504000D4609D004F1A5
:1005B0002000FFF715FF20B12068A84201D1204696
:1005C00070BD002000F0A2FBD5E90023A0F1580186
:1005D000C1E90023002240F85C2C40F8642C40F86C
:1005E000682C40F8785D70BD10B5AFF3008070B531
:1005F00000F084FB04680546A4B9202009F00CFC37
:10060000040011D0094900202C60C4E90001084908
:10061000A1602073206160610649A06109B100F00A
:10062000A5FBE061204670BDAFF30080A70F000876
:10063000E905000800000000012300F019B80000DF
:10064000017A51B9417A89B1491E417241680A1D46
:1006500042600968016004210172C9B2491E017239
:1006600001680A0E0902016010467047B020704709
:100670002DE9FF4D8CB05FEA000B4FF000001646ED
:100680000D4607900990059008900DD0BBF1010F21
:100690000AD0BBF1020F01D0002204E2A86BA864CB
:1006A000E86B04902C6C0FE095F85000C007E86CE4
:1006B000049078D10F9818B104980068C0F30740EF
:1006C000049901EB800442E00F98022811D027889A
:1006D000002F68D06088241D00F00102394662F3C3
:1006E0005F0161B1012934D002297DD00329EBD10A
:1006F0002FE12768002FECD060680834ECE7BBF1ED
:10070000000F24D0A96C002301EB000806A900917A
:1007100030460F22194600F060FC0698804516D836
:1007200008EB0701814212D9A96CA963201D049925
:10073000C5E90F102846FFF797FD0028ACD02068C8
:100740000F2240F31E0004443046049423E0241D8D
:10075000BAE7BBF1000F27D006A90023009130466D
:100760000D22194600F039FC0698296A88426ED19C
:10077000E86AA0426BD1206804A940F31E0004443B
:100780000023009130460F220494194600F00EFC1D
:1007900030460022049504A900230091194600F078
:1007A00005FC22463DE2D6E0A96C002301EB0008DF
:1007B0000AA9009130460F22194600F00EFC0A9853
:1007C0007F1E804543D808EB070181423FD9676807
:1007D000B81C0ED0781C0ED0206806ABC20F39466C
:1007E000284600F047FB00E033E078B302281DD034
:1007F00004E0022257E105F15800069004A9002305
:10080000009130460D22194600F0E7FB0498EC6297
:100810002862069868622068022140F31E000219CF
:100820002846FFF70DFD3A4680215FE004A900232A
:10083000009130460D22194600F0CFFB0498EC627F
:1008400028620698A86205F12800E3E7FFE708346C
:100850003AE72168069121F00048BBF1000F10D063
:100860000AA90023009130460D22194600F0B5FB7D
:100870000A98296A884240D1E86AA0423DD1012005
:100880003CE0A96C401E01EB000A0AA9002300917C
:1008900030460F22194600F0A0FB0A9882453AD84C
:1008A0000AEB0701814236D904F1040A00270AE065
:1008B0006B4600222846DAF8001000F0DBFA20B977
:1008C0000AF1040A7F1C4745F2D3474523D104A906
:1008D0000023009130460D22194600F07EFB04985B
:1008E000EC6228620020D34A022168622846FFF7A2
:1008F000A7FC062010B0BDE8F08D002058B1002004
:10090000C5E90A8004202863201D686306984045D5
:1009100006D1012007900698404515D1002014E02B
:1009200004EB8800002250F8041F134641F31E0117
:100930000C1804A9009130460495114600F036FBCE
:1009400030460F22049465E1042000EB8800044443
:10095000FDE60122A7E00498006801900498001DBC
:1009600002900F9810B30198000C8DF80D000198BB
:100970000004019002208DF80C0001A8FFF760FE32
:100980000446B0281AD03F2C41D800F03F01042083
:1009900000EB810706A90D24002300913046224672
:1009A000194600F01AFB0698384442E000208DF802
:1009B0000D000198000201900320DCE70998B0B90E
:1009C00005980028C5D004A8002300900E221946DF
:1009D000304600F002FB0499059105A9002300911F
:1009E00030460F22194600F0E1FA012008900798DE
:1009F000002870D0002204A90091304613460495C7
:100A0000114600F0D3FA0898002878D0FEE07F2C39
:100A100019D800F03F01042000EB810706A90D243E
:100A20000023009130462246194600F0D6FA069877
:100A3000C01B049004A800230090224619463046AB
:100A400000F0B4FA99E78F2C1AD80007040C01A81B
:100A5000FFF7F6FD54EA00143FF4CBAE0023224624
:100A60001946304600F0D0FA08B103221BE02004FA
:100A700001D5012009906004E4D5012005907CE7B0
:100A80009F2C16D800F00F020D2A0BD00F2A09D088
:100A900006A9002300910D243046194600F09DFA66
:100AA0000698C6E7042201212846FFF7C9FB092062
:100AB00020E7AF2C10D804F007000121401C814032
:100AC0000A01103A200703D5012042F48042059024
:100AD0000023194658E0AAE0B72C35D8B12C0FD026
:100AE000B22C15D0B328DDD101A8FFF7A9FD00F085
:100AF0000F0100F0F000491C41EA00322BE073E0E6
:100B000001A8FFF79DFD0200CCD00F2AE0D9C9E76C
:100B100000273C4601A8FFF793FD00F07F01A140AC
:100B20000F43000601D5E41DF4E706A90D240023B8
:100B3000009130462246194600F04FFA069800EB25
:100B4000870000F5017074E7BF2C07D800F007009C
:100B5000401C40F400220123012115E0C72C25D8B8
:100B600009D101A8FFF76CFD02009BD00F2A99D88C
:100B70000023042108E0C62C0DD000F00700401C23
:100B800040F4202203231946304600F03DFA0028A5
:100B90003FF458AF69E701A8FFF752FD00F00F01DD
:100BA00000F0F000491C41EA0032EBE7C82C0BD002
:100BB000C92C09D0CF2CAAD9D72CA8D800F007006F
:100BC000401C40F400220DE001A8FFF739FD00F0C1
:100BD0000F01491C00F0F00041EA0032C82C01D19D
:100BE00002F580120523B7E704A8002300900F2226
:100BF0001946304600F0F1F90499059105A9002342
:100C0000009130460E22194600F0D0F909493046CD
:100C10000F22049104A900230091194600F0C6F99F
:100C2000044A03212846FFF70BFB072062E6082051
:100C300060E600000D040008202A04DB203A00FAD8
:100C400002F1002070479140C2F1200320FA03F323
:100C5000194390407047202A04DB203A21FA02F021
:100C60000021704721FA02F3D040C2F120029140E6
:100C7000084319467047421E12F8013F002BFBD172
:100C800011F8013B02F8013B002BF9D170470346F4
:100C900011F8012B00F8012B002AF9D118467047F2
:100CA0000246C9B200E0401C0378002BFBD102E0F1
:100CB00003788B4203D0401E9042F9D20020704747
:100CC0000FB400B58DB010A909900B9000914FF0B2
:100CD000FF300A9000200C900548069005480790C8
:100CE0006A4609A80F9900F03FFF0DB05DF814FBAC
:100CF000851B0008A31B0008034870470248001D1D
:100D0000011F8860001D70475400002070B5044624
:100D1000FFF76DFC783405462646204609F07CF83E
:100D2000040007D13146E86900F029F8040001D138
:100D3000FFF7F9FB0AA104F12000D1E90021C0E985
:100D400000210021A162E16261612161A161E16193
:100D5000A868E0606868A06004F1780070BD0000D9
:100D600041524D00432B2B000000000010B588209D
:100D700009F052F8002801D00021017010BD80292F
:100D800002D808B1017809B100207047012100F8AC
:100D9000081B704718B100F10802914201D00020F1
:100DA000704700210170704770B5FFF720FC44695F
:100DB000054614B90020FFF7B6FBE06904F12006F0
:100DC000401CE0613046FFF717FB002801D0266881
:100DD00003E0286800F10100286002D04FF0000213
:100DE00000E022684FF000013046FFF729FA304654
:100DF000FFF701FA3046FFF7ABFB000073B50C4676
:100E0000FFF7F5FB54F80C1C203C31B1E169491E99
:100E1000E1610168491E01607CBD616804F17805EB
:100E200009B1284688472846BDE87C40FFF7B9BA93
:100E3000FFF795FB2846FFF7B4FAFFF7B5FF70B54B
:100E40000D46A0F158044C49A160012140F85C1CFA
:100E500040E91E52FFF7CBFB01682A46491C01609E
:100E600000212046FFF7ECF92046FFF7C4F92046A1
:100E7000FFF76EFB2DE9FF4D9A4693460E468046DE
:100E8000FFF7BAFA002875D1A8F12000012708F170
:100E9000580805680024CDF808803146284607F038
:100EA0001DF810B1CAF8008062E0284608F0D5F8B5
:100EB0000190304608F0D1F800903049019807F0D1
:100EC0000DF820B92D49009807F008F820B1DDE9A8
:100ED000001007F013F808BB2849019806F0FEFF40
:100EE000C0B1307A297A00F0030001F00301641CDC
:100EF00031EA00023ED130EA010100D077B1C007EB
:100F000000D100270298ED68F6680028C5D0006877
:100F10000290C2E7012C02D06CB109D02AE0184936
:100F2000304606F0DBFF18B1BBF1000F22D1B9E764
:100F3000BBF1000F1ED11349019806F0CFFF20B975
:100F40001149019806F0CAFFA0B10020009001905D
:100F500033462A4603A902A808F032F9002804D033
:100F60000399CAF800101CB1022004B0BDE8F08D4E
:100F70000120FAE70020F8E7FD0D000884B400081E
:100F80009CB5000890B400089CB4000810B5FFF7A9
:100F90002EFB016919B100220261884701E0406817
:100FA0008047AFF30080FFF70DBA000010B5029C38
:100FB00031B101290DD003290BD004290BD108E050
:100FC0004BB90F2A07D800EB82002168416000204E
:100FD00010BD012010BD022010BD10B5029C31B122
:100FE00001290DD003290BD004290BD108E04BB9FE
:100FF0000F2A07D800EB820040682060002010BD57
:10100000012010BD022010BD2DE9F04DC0B0984662
:10101000044631B1012918D0032979D0042979D1A6
:1010200076E0B8F1000F75D190B2231D00F40052A4
:10103000A16B05E0C50701D020C91D6040081B1D3C
:101040000028F7D1F2BBA1635EE0150C96B2102D1B
:1010500001D2012000E000208246A819102801D901
:10106000012700E00027B8F1010F03D0B8F1050F08
:1010700050D101E03FBB01E020284BD84FF0000BDE
:10108000BAF1000F08D02078012805D184F800B00B
:1010900004F1480080EC200B47B16078012805D1AD
:1010A00084F801B004F1C800C0EC200BBAF1000FC5
:1010B00002D0684680EC200B20A883460FB1C0EC1C
:1010C000200B01E020E025E06B46A06B08E0014624
:1010D00003EBC502D1E900C1C2E900C108306D1CB3
:1010E000761EF4D24146B8F1010F00D0002100EB8A
:1010F0008100A063BAF1000F02D0184690EC200BDB
:1011000017B15846D0EC200B002040B0BDE8F08D60
:101110000120FAE70220F8E710B50468904801F1D1
:101120000802436803444FF0FF30934204D0136831
:1011300043F31E03134400E003460A6842F31E0211
:101140001144A14202D89C4201D3012010BD0020CD
:1011500010BD33B50446824881B0824D01684268B3
:1011600001441044401AC21002980823801E0290C5
:1011700002A8009500F020FF7B49002370B10268AF
:1011800042F31E020244A2644268012A09D0002AE6
:101190000ADA001DE064012020650BE0042263618F
:1011A00015E00222636112E042F31E02001D1044AA
:1011B000C4E91303E26C1068002815DAC0F3036079
:1011C00050B101280AD002280CD0012263612046C8
:1011D000FFF736F809203EBD644800E064486061CE
:1011E00000203EBD6348FAE740F31E001044F6E7D6
:1011F0000C4605462846216CFFF7ABFF50B9206C22
:1012000028616B692246294601209847072803D0A8
:101210000828EFD0AFF30080201DFEF7DFFFF0B508
:101220000446C068D3B00E46012768B3582008F0C2
:10123000F3FD05002AD0142204F10C0105F10C0085
:1012400000F0DCF8182204F1200105F1200000F084
:10125000D5F804F1380005F1380C0FC88CE80F0000
:10126000E560F06B30644022311D01A800F0C6F843
:101270008DF800708DF8017012AF32AD20461099D4
:10128000FFF767FFD0B910E0E760EAE705223649CB
:101290002046FEF7D5FF05E09DF8010010B928466D
:1012A000D0EC200B53B00920F0BD63696A4621469B
:1012B00000209847062809D00828DFD09DF80000B4
:1012C0000028E9D1384690EC200BE5E79DF80000B6
:1012D00010B9384690EC200B9DF8010010B9284653
:1012E000D0EC200B31462046FFF782FF054600690F
:1012F00008640C460A466B6929460220984707286D
:1013000003D0082804D0AFF30080201DFEF766FF4D
:1013100021462846FFF76CFF70B5C1680546D1B17C
:1013200001291AD00C46142205F10C000C3100F0F2
:1013300065F8182204F1200105F1200000F05EF8A4
:1013400004F1380038350FC885E80F002046BDE8A5
:10135000704008F07DBCAFF300800020E86070BDF5
:101360001C02000819110008010000FFE502000836
:1013700039060008000000008268002A02D00146F9
:101380000120104770470000064C074D06E0E0685A
:1013900040F0010394E8070098471034AC42F6D3BC
:1013A000FEF7F6FEECBC00080CBD000830B50B469D
:1013B000014600202022012409E021FA02F59D4285
:1013C00005D303FA02F5491B04FA02F52844151E59
:1013D000A2F10102F1DC30BD0048704730B40008D2
:1013E00010B50446FFF7F8FF0068005D00F001004B
:1013F00010BD00000048704734B4000810B5441A0E
:101400000346944209D28418114403E011F8013DC7
:1014100004F8013D521EF9D210BD40EA0104A407B0
:1014200003D009E010C9121F10C3042AFAD203E046
:1014300011F8014B03F8014B521EF9D210BD10B543
:1014400003460020904201D20C5C1C540C5C002C22
:1014500001D0401CF6E710BD10B5002200E0521C80
:10146000835C8C5CA34201D1002BF8D1D8B2E1B2ED
:10147000401A10BDFFF7F0BF2DE9FF4F1C4681B0A9
:101480000021D4E9016791464FF0FF358A4688462E
:10149000A1696D1C02988847216A83468847002805
:1014A000F6D1BBF1FF3F0CD026F4C066002F1ADD49
:1014B000700615D5BBF12B0F0AD0BBF12D0F0FD144
:1014C00004E04FF0FF3005B0BDE8F08F46F48066D1
:1014D000A1696D1C029888477F1E8346002F02DD9C
:1014E000BBF1300F03D0B9F1000F2AD025E0A1697C
:1014F0006D1C46F400767F1E029888478346002FB5
:1015000005DDBBF1780F06D0BBF1580F03D0B9F160
:10151000000F10D011E0B9F1000F02D0B9F1100F97
:101520000BD1A1696D1C26F400767F1E02988847B6
:101530008346102000E0082081464FEAE9700090C1
:1015400017E00A20F8E74346AAFB092803FB0980B5
:10155000DDF800C07F1E0AFB0C0112EB0B0A41EB09
:10156000EB78A16946F4007605F1010502988847F9
:101570008346002F06DD4946584600F040FD5FEAED
:10158000000BE0D5E16902988847B00502D46FF0FE
:10159000010098E7F00718D1700610D57005514684
:1015A00005D50023D1EB030163EB080200E04246BE
:1015B0002068031D23600068C0E9001205E0206870
:1015C000011D21600068C0E900A828467BE72DE9DD
:1015D000FF5F1D464FF0FF3BD5E9014691465F4650
:1015E0004FF00008A9697F1C01988847296A824644
:1015F00088470028F6D1BAF1FF3F0CD024F4C0642C
:10160000002E19DD600614D5BAF12B0F09D0BAF1FE
:101610002D0F0ED103E0584604B0BDE8F09F44F40E
:101620008064A9697F1C01988847761E8246002E37
:1016300002DDBAF1300F03D0B9F1000F26D032E04D
:10164000A969761E44F400747F1C0198884782467D
:10165000002E05DDBAF1780F06D0BAF1580F03D08D
:10166000B9F1000F10D01EE0B9F1000F02D0B9F1AE
:10167000100F18D1A969761E24F400747F1C0198FC
:1016800088478246102002E0082000E00A208146B8
:1016900009E008FB0908A969761E44F400747F1C60
:1016A000019888478246002E05DD4946504600F0E5
:1016B000A6FC0028EDDAE96901988847A00502D464
:1016C0006FF00100A8E7E00725D1600613D560059B
:1016D00002D5C8F1000000E0404629680A1D2A60D2
:1016E0000968220501D5087015E0220701D5088098
:1016F00011E008600FE02868011D296000682105DD
:1017000002D580F8008006E0210702D5A0F800800D
:1017100001E0C0F8008038467EE72DE9FF5FD2E99E
:1017200001A74FF00008916999461446DDF838B0DA
:10173000464601988847054659EA0B0005D009E05E
:10174000A169761C019888470546216A2846884782
:101750000028F5D1681C03D05FEACA7005D015E0F7
:101760004FF0FF3004B0BDE8F09F2068011D2160FC
:10177000D0F800800AE05FEACA7001D108F8015B86
:10178000A169761C7F1E019888470546002F1ADD47
:10179000681C18D0B9F1000F0DD0E81705EBD06028
:1017A000421120F01F0059F822102A1A01209040FF
:1017B0000142E0D107E0BBF1000FDCD1216A2846ED
:1017C00088470028D7D0E16901988847BBF1000F0E
:1017D00007D1002E05DD5FEACA7002D1002188F82A
:1017E0000010A068B84203DDBBF1000F03D017B1B1
:1017F0006FF00100B6E73046B4E700002DE9FF4F77
:10180000087883B09946FF2805D0491C2D2804D0BC
:101810000024002008E000200BE00124F9E700EBA1
:10182000800003EB4000491C0B78FF2BF7D104B17B
:10183000404200230293147819461D462D2C01D0F6
:101840002B2C04D1521C2D2C13D000240294AA4618
:101850001478FF2C0FD00A25A3FB057801FB058126
:101860004FF0000C03FB0C11521CE3194AEB010171
:10187000EEE70124EAE7814453EA010002D019F5BA
:10188000C87F06DA03980021C0E9001107B0BDE85F
:10189000F08F0025AE4E2F46DFF8B882184600F0D4
:1018A000D5FDCDE90001B9F1000002DAC9F100046B
:1018B00000E004460023A74A1AEB030B42EB045A4C
:1018C00012E0E00707D02A4633463846414600F08A
:1018D00037FA074688462A4633461046194600F02E
:1018E0002FFA05460E466410002CEAD1DDE900010E
:1018F000B9F1000F5A46534606DA00F093FA3A4619
:10190000434600F08FFA05E000F01AFA3A464346E3
:1019100000F016FA029A0AB181F00041039AC2E976
:101920000001B3E72DE9FF4F1F468DB0D7E901460F
:101930004FF0FF382E2045464FF000090B90B96953
:101940006D1C0E988847396A824688470028F6D170
:10195000BAF1FF3F0AD024F4D064002E11DDBAF1B1
:101960002B0F08D0BAF12D0F0BD102E0404611B079
:101970008DE744F48064B9696D1C0E9888478246EF
:10198000761E6946600501D52D2000E02B208DF8DC
:10199000000001F1010B0DF1200809E0B9696D1C8F
:1019A0000E98884782460F9844F40074761E0560AE
:1019B000002E02DDBAF1300FF0D00B998A453ED1EE
:1019C00044F0800406E00F99681CA9F1010944F471
:1019D00000740860B9696D1C761E0E9888478246AF
:1019E0003028F0D02BE00B998A4505D1200603D48E
:1019F00044F08004761E18E0504607F071FD08B3ED
:101A00000DF11301761E44F400748B4508D2AAF13F
:101A100030000BF8010B200607D5A9F1010003E007
:101A2000200602D409F101008146A00502D50F99D4
:101A3000681C0860B9696D1C0E9888478246002EA4
:101A4000D1DC53E0002E51DDBAF1650F02D0BAF1BE
:101A5000450F4BD1A00549D5B9696D1C24F44074DC
:101A6000761E0E9888478246002E0CDD2B2804D067
:101A7000BAF12D0F07D144F48074B9696D1C0E982A
:101A800088478246761EE00501D52D2100E02B21F6
:101A900008F8011BCDF82C8021E00DF12901761EFC
:101AA00044F4007488450CD2AAF1300010F0FF0015
:101AB00088F8000002D10B99884509D908F101087E
:101AC00006E0E00501D5244801E042F20F708146AE
:101AD000B9696D1C0E98884782460F980560002EE4
:101AE00004DD504607F0FCFC0028D6D1F9690E98B9
:101AF0008847FF208BF8000088F80000002006903F
:101B000007904B466A4608A906A8FFF777FEA0058E
:101B100002D46FF001002AE714F0240F0AD0E00786
:101B200014D1DDE906123868031D3B600068C0E986
:101B300000120BE0DDE9060100F094FC0146E0072D
:101B400004D13868021D3A600068016028460EE73B
:101B5000000014400000F03FF1D8FFFF026811447C
:101B60001378016018467047D160044951610449F7
:101B7000116200211161114600F050BA5D1B00088E
:101B8000E1130008426842B1016811F8013B23B13A
:101B9000521EC0E90012184670470121C160881E1C
:101BA000704742685AB1C368016843B983688B4281
:101BB00005D0491E521CC0E90012002070474FF0AA
:101BC000FF3070472DE9F041074615460E461020BC
:101BD00008F022F904000AD06760C4E9026500F049
:101BE000B3FB0168216004600020BDE8F0810120A2
:101BF000FBE72DE9FE4F804681EA0300C00F0C464B
:101C0000009021F0004123F00045B8EB0200A9410B
:101C100005D24046214690461C460B46024623F01C
:101C20000040104347D0270DC7F30A00C3F30A5101
:101C30000290401A019040286BDAC3F3130040F47D
:101C4000801B0098924620B10023D2EB030A63EB7D
:101C50000B0B01985946C0F140025046FEF7ECFFCD
:101C600006460D4650465946019A00F093F910EB8E
:101C700008006141002487EA115284EAE7731A439D
:101C800040D0009A62B3019A012A4FEA075215DC4C
:101C9000001B61EB02014FF0004202EA0752CDE95E
:101CA0000042001C41F5801132462B4600F080FBBB
:101CB00003B0BDE8F08F40462146F9E7001B61EB19
:101CC0000201001C41F5801300185B412018A2F5A9
:101CD000001747EB030140EAD570B6196D4111E0DA
:101CE0006D084FEA360645EAC0754FEA0752001BF9
:101CF00061EB0201001C41F5801149084FEA3000F8
:101D00000019514132462B4603B0BDE8F04F00F0B8
:101D100040BB0098012240000023D0EB020263EB9D
:101D2000E073009821464FEAE074B8EB000061EBE5
:101D30000401E9E783F000435BE781F0004158E7E5
:101D40002DE9FE4F81EA030404F0004421F0004134
:101D500000944FF0000B23F0004350EA01045ED0E2
:101D600052EA03045BD0C3F30A54C1F30A552C446E
:101D7000A4F2F3340194A0FB0254C1F3130141F423
:101D80008011C3F3130343F4801301FB024400FBEF
:101D9000034E840A970A44EA815447EA8357A4FB16
:101DA000076802958D0A05FB07854FEA932C04FB13
:101DB0000C542705029D4FEA065847EA1637B5EB43
:101DC00008056EEB070C870E920E47EA811742EA70
:101DD0008312A7FB0201B6EB0B0164EB00042B0D91
:101DE00043EA0C335E1844EB1C50DA465146E7FBDD
:101DF0000201C5F313044FEA0B3343EA14534FEACD
:101E00000432019C43EA0603A4F10C040294009CF2
:101E1000CDE900B400F0CCFA03B0BDE8F08F0020AB
:101E20000146F9E72DE9F04D81EA030404F0004B87
:101E300021F0004514464FF0000A23F0004150EA1B
:101E4000050220D054EA01021DD0C5F30A5702460C
:101E5000C5F31303C1F31300C1F30A5640F4801510
:101E600043F48013A7EB0608101BD64608F2FD3892
:101E700073EB050002D308F1010801E092185B4101
:101E8000B8F1000F03DA00200146BDE8F08D002014
:101E90004FF48011064684460EE0171B73EB0507CE
:101EA00005D3121B63EB050306434CEA010C4908FA
:101EB0004FEA300092185B4150EA0107EDD152EA37
:101EC000030012D082EA040083EA0501084305D02A
:101ED000101BAB4106D20122002306E000224FF086
:101EE000004302E06FF0010253101AEB06004CEBC6
:101EF000085110EB0A0041EB0B01BDE8F04D00F07A
:101F000048BAC1F30A52C1F3130140F2FF3341F45E
:101F100080119A4202DA00200146704740F23343B2
:101F20009A42A2F2334202DC5242FEF794BEFEF71E
:101F300083BE000030B5041E71F1000404DB4FF0D5
:101F40000044404264EB0101141E73F1000405DB00
:101F50001C464FF00043524263EB0403994208BF12
:101F6000904230BD38B5684605F0E0FF0420FEF72A
:101F7000CDFE694605F0D2FF0446684605F0E5FF50
:101F8000024A03492046FEF75AFF00004B7F000833
:101F9000E4B40008202A06DBCB17203A41FA02F00D
:101FA00043EAE07306E041FA02F3D040C2F12002B6
:101FB00091400843194670472DE9F05F9946154650
:101FC0000F4683464FF0FF36DDF828A011E0A81930
:101FD000441009FB0470804601465846524690471B
:101FE000002802D004DA254603E04046BDE8F09F11
:101FF0002646A5EB06000128E9DC0020F6E73A2892
:1020000000D2303820F02002412A01D3A2F137005B
:10201000884201D34FF0FF30704700002DE9F34FA5
:102020008BB04FF0000801F10C000C464FF0010B93
:1020300046460DF1080A0190626901210198904716
:10204000051E2DD0252D2CD0216A8847C0B162698C
:10205000012101989047216A88470028F7D1411E45
:1020600062690198904700E0761CA1690B98884747
:10207000216A88470028F7D1E1690B988847DBE798
:10208000A1690B9888470746A84201D1761CD3E77F
:10209000E1690B9888477F1C02D1B8F1000F6FD01F
:1020A00046E1002762693D463946019890472A2853
:1020B00004D162690121019890470125DFF88492DB
:1020C0006269012101989047A0F130010A290AD2E2
:1020D0004F45E5DC07EB870100EB4107303FDFD4DC
:1020E00045F01005ECE7E90601D46FF000476C28D5
:1020F0000AD04C2814D0682815D06A280DD074282E
:102100001CD07A281AD01DE06269012101989047FD
:102110006C2802D045F0040514E045F002050DE0FE
:1021200045F020050AE0626901210198904768287E
:1021300002D045F0080505E045F40065626901211B
:1021400001989047C4E9015765283DD019DC58280B
:102150007AD00CDC452837D004DC252826D041284D
:1021600031D131E046282FD047282CD12CE05B28F4
:1021700077D0612828D063287CD0642823D15AE006
:10218000D0E06F2848D008DC66281DD067281BD017
:10219000692821D06E2816D127E0702845D07328F1
:1021A00068D0752847D078280DD14DE0A1690B98EB
:1021B0008847054625283FF469AFE1690B988847B1
:1021C0006D1C3FF46AAFB3E023466A466FF001002E
:1021D0000B99FFF7A7FB9EE045F040006060A80761
:1021E00023464FF0000236D43EE0E8077FF447AFC5
:1021F0002068011D21600068290501D506701BE7D4
:10220000290701D5068017E7A90703D5F117C0E90B
:10221000006111E706600FE745F040006060A80725
:1022200023464FF0080216D41EE040F60E0125EAC0
:102230000100606016E045F040006060A80723469A
:102240004FF00A0207D40FE045F040006060A80795
:1022500008D5234610226FF001000B99FFF70CF907
:1022600059E007E0234610226FF001000B99FFF7B9
:10227000AEF950E04FF000094F464B46632802D0BC
:102280005B2806D040E0E80601D40120A0600127C9
:102290003AE062690121019890475E2805D14FF02C
:1022A00001096269494601989047216939B90021BD
:1022B0000A46534643F82120491C0829FADBB0B3EB
:1022C000216969B9C11700EBD16253110AEB83018F
:1022D00022F01F02821A01200B68904003430B601A
:1022E00062690121019890475D28E8D1B9F1000F9A
:1022F00009D00020514651F82020D24341F8202037
:10230000401C0828F7DB02AB224600976FF0010063
:102310000B99FFF702FA00280CDA401C08D1BBF138
:10232000000F05D04FF0FF300DB0BDE8F08FFFE794
:102330004046F9E7E90701D108F1010806444FF0EA
:10234000000B79E6CCCCCC0C004870477000002024
:102350002DE9F0410646FFF7F7FF8046454613E0BA
:1023600016B1E068B0420ED120682860D4E90101BE
:10237000D8F800708847204607F06AFCD8F80000BB
:10238000B842EBD100E025462C68002CE8D1BDE82E
:10239000F08110B5141E73F1000408DA401C41F1FD
:1023A000000192185B411A4301D120F0010010BDD9
:1023B0002DE9F04D92469B4611B1B1FA81F202E04F
:1023C000B0FA80F220329046FEF736FC04460F4603
:1023D00040EA0A0041EA0B0153465A46084313D02B
:1023E000114653EA010019D0C8F140025046FEF7E9
:1023F00032FC05460E46504659464246FEF71CFC46
:10240000084305D0012004E020463946BDE8F08DA0
:102410000020054346EAE0762C4337430A986305DB
:10242000E40AA0EB08000022FD0A44EA47540A30FF
:1024300002D500200146E9E7010510196941DDE9EF
:10244000084500196941BDE8F04DA2E70EB540F21C
:10245000334202920022CDE900221346FFF7A8FF83
:1024600003B000BD01F0004330B421F0004150EA58
:10247000010206D00A0DA2F56072C1F31301002A11
:1024800002DC30BC00207047440F44EAC104C100A4
:10249000E01830BC00EBC25000F001B870470029D2
:1024A000A8BF7047401C490008BF20F001007047DA
:1024B00010B4B0FA80FC00FA0CF050EA010404BF3A
:1024C00010BC704749B1CCF1200421FA04F411FA90
:1024D0000CF118BF012121430843A3EB0C01CB1DD4
:1024E0004FEA00614FEA102042BF002010BC704745
:1024F00000EBC35010440029A4BF10BC7047401C1F
:10250000490008BF20F0010010BC704770B5054CB1
:10251000054D03E0206820448047241DAC42F9D1DA
:1025200070BD00000CBD000818BD0008FDF7D6FF07
:10253000FDF7D4FFFDF736FEFDF7D0FFFDF732FEC5
:1025400038B50446684607F056FE0146204608F0B6
:102550003DF838BDFEE730B50468256825F48025D0
:102560002560046863608368402B036803D099602A
:102570000068C26030BD9A600068C16030BD7047BD
:1025800090F83510022903D0802141650120704761
:10259000052180F835100068016821F00101016013
:1025A00000207047406D704790F83500704770B557
:1025B000044690F83400002501280CD0012084F84E
:1025C000340094F835600020012E06D084F83400E1
:1025D0000225284670BD022070BD022684F83560B1
:1025E00060652046FFF7B7FF2068016841F00101F0
:1025F0000160EEE72DE9F0410446866D90F8340065
:10260000002501280DD0012084F8340094F835709D
:102610000020012F07D084F8340002252846BDE8A9
:10262000F0810220FBE7022784F8357060652046C0
:10263000FFF791FF94F85C103F208840B06020685D
:10264000016841F016010160206C20B1206801682A
:1026500041F0080101602068016841F0010101605A
:10266000DCE7000070B5044600F0EAF80546601C9F
:1026700002D004480078044400F0E2F8401BA04275
:10268000FAD370BD000000202DE9F84F00224FF072
:10269000010803254FF00F0E0B6808FA02F42340DF
:1026A000A3426ED14E68012E05D0022E03D0112E0A
:1026B00001D0122E12D186684FEA420C05FA0CF7AF
:1026C000BE43CF6807FA0CF7374387604668A643D6
:1026D0000C79C4F30014944034434460C668570036
:1026E00005FA07FC8C6826EA0C06BC403443C4603B
:1026F0004C68022C01D0122C13D1D40800EB8404B6
:10270000A346D4F8209054074FEAD46A0EFA0AF68A
:1027100029EA06090E6906FA0AF646EA0906CBF81E
:10272000206006680C7926EA0C0604F00304BC401D
:10273000344304604C68E40065D5364C266846F4A2
:1027400080462660246822F0030604F48044009446
:10275000314C3444A446D4F808489607370F0EFA93
:1027600007F6B4432D4EB04201D1002624E02C4E92
:10277000B04201D101261FE02A4EB04202D102260A
:102780001AE040E0284EB04201D1032614E0274E63
:10279000B04201D104260FE0254EB04201D10526FA
:1027A0000AE0244EB04201D1062605E0224EB04296
:1027B00001D1072600E00826BE402643CCF8086871
:1027C0001E4E34684F689C43FF0300D51C433460A1
:1027D0001A4C241D26684F689E43BF0300D51E4334
:1027E0002660164E083634684F689C43FF0200D5B9
:1027F0001C433460114E0C3634684F689C43BF0252
:1028000000D51C433460521C102AFFF445AFBDE8CC
:10281000F88F0000443802400030014000000240C0
:102820000004024000080240000C02400010024078
:102830000014024000180240001C0240003C01400D
:1028400001488068704700000000002001480078BF
:1028500070470000000000200148406870470000F9
:1028600000000020704770472DE9F04101680446E0
:102870004A694E6890F83E000025D743FA0506D411
:10288000F243D20503D46FF4807201254A61B90581
:1028900008D4F143C90505D422686FF4007145F0EE
:1028A00002055161790525D4F143C90522D4638D10
:1028B00094F83D10226B202808D13BB9212910D073
:1028C00029290ED0282901D1212A0AD022686FF4A3
:1028D0008061516145F00405102806D0402804D0DD
:1028E00008E0204602F0C4FF04E02068016841F4DB
:1028F00000710160380508D4F043C00505D4216893
:102900006FF4006045F008054861002D07D0206C89
:10291000284320642046BDE8F04102F0BBBABDE880
:10292000F0812DE9F041026800245168C76A90F8EF
:102930003E5090F83D60102D1CD0402D1AD0036CF5
:10294000002B7ED053694FF02805DB439F0779D4D5
:10295000CF43BF0576D4016C01B1946990F83D3046
:1029600000219D430B466ED0C91E516180F83C305A
:10297000BDE8F081946953694FF42A0CDB435FEAA8
:10298000C37E4FF02A4604D06745F1D0B742EFD05E
:1029900010E0CF43BF050DD4C16A614501D10121CB
:1029A00003E0C16AB14201D10821C162BDE8F04132
:1029B00002F0F6BD1E0716D4CE43B60513D4416C03
:1029C000C9B21161416B11B9826B002AD0D0C96BB9
:1029D00019B9816BC96B0029CAD00068416841F4FC
:1029E00000614160C4E79E0706D4CE43B60503D418
:1029F000BDE8F04102F048BDE443526864074FEA85
:102A000002521BD4002AB3DB1A0608D4CA4352056B
:102A100005D45A0705D5BDE8F04102F0D9BC5A07E4
:102A2000A6D4C9438905A3D4102D03D0BDE8F04135
:102A300002F0FCBDBDE8F04102F090BC002A97DB3B
:102A400002E015E029E015E05A0608D4CA43520511
:102A500005D45A0705D5BDE8F04102F047BB5A0737
:102A600086D4C943890583D4BDE8F04102F0D5BAC4
:102A7000946967E7556825F480655560E24354071B
:102A800000D50121120601D5828900E0028B80F871
:102A90003C3092B2FFF7E7FE6AE7DC0606D4CC438F
:102AA000A40503D4BDE8F04102F024BF212E27D0B5
:102AB000292E25D05C0655D4CC43640552D45B073F
:102AC00052D590F83D10438D002B8BD01269436A8C
:102AD0001A70426A521C4262428D521E4285428DD9
:102AE000002AD9D12A29D7D101684A6822F4806204
:102AF0004A602221016380F83D5001F009FA37E76E
:102B00001C0623D4CC43640520D45B0720D590F861
:102B10003D10438D002BBFD0436A1B781361426A7E
:102B2000521C4262428D521E4285428D002AB3D110
:102B30002929B1D101684A6822F480624A602121C2
:102B4000016380F83D5001F0E4F911E75B07A3D47D
:102B5000C9438905A0D4418D00299DD0416A0978D7
:102B600011610AE05B0797D4C943890594D4418D6C
:102B7000002991D01169426A1170416A491C416271
:102B8000418D491E4185F3E67047000070B5040091
:102B900025D094F83D00002520B984F83C5020460B
:102BA00001F072F9242084F83D002068016821F0CA
:102BB000010101602068016841F400410160206862
:102BC000016821F40041016001F04AFE4D4A61684C
:102BD000914201D84C4900E04C49884201D2012081
:102BE00070BD4B492368B0FBF1F15E6826F03F06EB
:102BF0000E435E606368934206D94FF4967359435F
:102C00004FF47A73B1FBF3F12368491C1E6A26F076
:102C10003F06314319626168914210D84900401E55
:102C2000B0FBF1F2521CC2F30B02042A01D20420C1
:102C300022E0B0FBF1F0401CC0F30B001CE0A268E6
:102C4000F2B301EBC10303EB0116431EB3FBF6F332
:102C50005B1C43F480431B0549D092B301EBC102D6
:102C600002EB0111401EB0FBF1F0401CC0F30B0061
:102C700040F4804040F400402168CA694CF6FF737C
:102C80009A431043C861D4E90710014320680268E1
:102C900022F0C00211430160D4E90301014320681E
:102CA000826848F2FF339A4311438160D4E90501F9
:102CB00008432168CA6822F0FF021043C86001E09F
:102CC0000EE016E02068016841F001010160256412
:102CD000202084F83D00256384F83E50002070BD1C
:102CE00001EB4106431EB3FBF6F35B1CB3E7012087
:102CF000C2E701EB4101401EB0FBF1F0401CC0F304
:102D00000B00B7E7A086010080841E0000093D008B
:102D100040420F002DE9FF4F81B089460446FFF77E
:102D20008FFD054694F83D004FF0010820287DD125
:102D30001923012250492046009502F0AFFE0028D9
:102D400074D194F83C00012870D0012084F83C0034
:102D500020680168C90703D1016841F001010160E1
:102D60002068016821F400610160242084F83D009E
:102D7000002626644148E0624FF0011B20272068AE
:102D8000016841F480710160009500225946204697
:102D9000049B02F083FE50B120680068C00502D594
:102DA0004FF400702064032005B0BDE8F08F216867
:102DB00009F0FE000861FFF743FD216805464869F8
:102DC0004969C0F34000C1F380214FF0A00A0FE031
:102DD000FFF736FD411B0498814200D808B984F8FA
:102DE0003DA0216848694969C0F34000C1F38021D2
:102DF00094F83D20A02A02D008B90029E8D084F830
:102E00003D7020684169C943890716D4016841F4BF
:102E10000071016020684169806919230122164907
:102E20002046009502F03AFEB8B900E021E084F8AF
:102E30003D7084F83C600020B6E7016841F4007101
:102E4000016021686FF480604861192301220A49FA
:102E50002046009502F022FE08B10120A4E7039865
:102E600008F1010880458AD384F83D7084F83C60FD
:102E7000F3E7022098E70000020010000000FFFFC7
:102E800070477047704710B590F83E10026893691C
:102E9000DB439B0701D4102901D0012010BD90F81D
:102EA0003C1001291CD0012180F83C100021016355
:102EB000602380F83D30136823F480631360026858
:102EC000136843F40073136041850268536823F468
:102ED000E063536080F83C1001F0DCFF002010BD7F
:102EE000022010BD2DE9F84F1F4690468A46044641
:102EF000DDF82890FFF7A4FC054694F83D00202853
:102F000075D1192301226C492046009502F0C6FDB7
:102F10000028F5D194F83C00012868D0012084F8FD
:102F20003C0020680168C90703D1016841F0010134
:102F300001602068016821F400610160222084F8AA
:102F40003D00102084F83E0000262664C4F824804A
:102F50006785608D20855948E0622B464A46514678
:102F6000204602F037F9002878D1208D544F68B1FF
:102F7000012814D002282068016816D041F480612D
:102F80000160206841698069009087E0206841699C
:102F900081690091016841F4007101607EE0206860
:102FA000016821F480610160F0E721F48061016033
:102FB0002068016841F40061E2E7032848D801284D
:102FC0000AD0022814D04B460022394620460095EC
:102FD00002F064FDD8BB27E02A464946204602F0AD
:102FE000DCFDA0BB20680069616A08704DE061E00B
:102FF0004B46002239462046009502F04FFD30BB7B
:103000002068016841F40071016020680069616A0C
:103010000870606A401C6062218D491E2185618DA7
:10302000491E618521682EE02068016821F48061D5
:10303000016020680069616A0870606A401C606213
:10304000208D401E2085608D401E6085D0E705E004
:103050002A464946204602F0A0FD10B10120BDE8F5
:10306000F88F20680069616A0870606A401C6062BD
:10307000218D491E2185618D491E618521684A691E
:10308000D24352070AD409690170606A401C606229
:10309000208D401E2085608D401E6085208D00287B
:1030A0008BD1202084F83D0084F83E6084F83C6099
:1030B0000020D4E70220D2E7020010000000FFFF4A
:1030C00004000100F8B500250446009590F83D0085
:1030D00020287DD14A4846F2A8160068B0FBF6F0D9
:1030E00000EBC00606EB0010202600900098401E62
:1030F000009010D020688069C0438007F6D594F80E
:103100003C00012879D0012084F83C002068076841
:10311000FF070AD00DE044F8305F6673A57320699D
:1031200040F020002061257339E0076847F001076F
:1031300007602068076827F400670760222084F88A
:103140003D00102084F83E00256462626385608D36
:1031500020852C48E0626164208DD0B3A16B2A48A1
:10316000C863A16B2948C864A06B0564A06B456463
:10317000A06B8564A06B05652168238D1031626AA0
:10318000A06BFFF737FA60B184F83D6084F83E50D9
:1031900054F8400F40F0100044F804092570012055
:1031A000F8BD2068016841F4806101602068016811
:1031B00041F48071016084F83C502068416841F41A
:1031C000407141602068416841F40061416001E064
:1031D00013E001E00020F8BD2068016841F480613F
:1031E00001602068016841F48071016084F83C50FE
:1031F0002068416841F4E061E8E70220F8BD000082
:103200000C0000200000FFFF894D0008494D000818
:103210002DE9FC4700260A9D04460096019690F889
:103220003D004FF4E06C202872D1206807684FF011
:103230002009BF0503D4082D01D0012D1ED16B4FED
:1032400046F2A8183F68B7FBF8F707EBC70808EB8A
:10325000071701977F1E019705D08769FF43BF07B6
:103260000CD4019FF6E744F8306F84F80D90A673F4
:10327000206940F020002061267374E094F83C70CF
:10328000012F45D0012784F83C700768FF0703D160
:10329000076847F0010707602068076827F40067A0
:1032A00007602068476827F480574760222084F829
:1032B0003D00102084F83E00266462626385608DC4
:1032C0002085E5626164206B0090208D4FF42A0810
:1032D0004FF02A4700286CD0608D022803D1202DA2
:1032E0000DD0102D0BD02068016841F48061016081
:1032F000202D16D0BD4214D0102D12D016E000980B
:1033000012282068016804D041F4806101600DE05A
:1033100069E021F4806101602068016841F4006186
:1033200001602068416841F480514160A16B3048E0
:10333000C863A16B2F48C864A06B0664A06B0665C8
:103340002168238D1031626AA06BFFF753F968B1D1
:1033500084F83D9084F83E6054F8400F40F010002F
:1033600044F8040926700120BDE8FC870098122863
:1033700003D1454501D0BD4207D12068016841F421
:10338000807101604FF4407001E04FF4807084F868
:103390003C60042D03D0202D01D0102D04D12168D4
:1033A0004A6842F400624A6021684A6802434A60FF
:1033B00017E02068016841F48061016000981228DC
:1033C00003D1454501D0BD4204D12068016841F4D4
:1033D0008071016084F83C602068416841EA0C011A
:1033E00041600020C0E70220BEE700000C00002082
:1033F000894D0008494D00082DE9F04385B00026AD
:103400000446049600960C9D90F83D0020287DD13E
:10341000206807685FEA875C4FF0200703D4082D17
:1034200001D0012D27D1DFF878C146F2A818DCF8C9
:1034300000C0BCFBF8FC0CEBCC0808EB0C1CCDF876
:1034400000C000BFBCF1010CCDF800C009D0D0F81D
:1034500018C06FEA0C0C5FEA8C7C0CD4DDF800C05D
:10346000F0E744F8306F6773A673206940F02000DE
:10347000206126734EE094F83CC0BCF1010F45D0AA
:103480004FF0010C84F83CC0D0F800C05FEACC7C5F
:1034900005D1D0F800C04CF0010CC0F800C0206885
:1034A000D0F800C02CF4006CC0F800C0212084F8D3
:1034B0003D00102084F83E00266462626385608DC2
:1034C0002085E5626164206B0490208D4FF42A080A
:1034D0004FF02A49F0B3616B3248C863616B3248E0
:1034E000C864606B0664606B06652268238D1032C9
:1034F000616A606BFFF77EF880B184F83D7084F8F4
:103500003E6054F8400F40F0100000E045E044F801
:1035100004092670012005B0BDE8F0832068016829
:1035200041F4806101600498112803D1454501D020
:103530004D4504D12068016841F48071016084F830
:103540003C60042D03D0202D01D0102D06D1206821
:10355000416800E007E041F4006141602068416893
:1035600041F4407116E02068016841F48061016017
:103570000498112803D1454501D04D4504D1206858
:10358000016841F48071016084F83C602068416802
:1035900041F4E06141600020BDE70220BBE700008C
:1035A0000C000020894D0008494D00082DE9F84F16
:1035B0001F4690468A460446DDF82890FFF740F9FA
:1035C000054694F83D0020287FD119230122404967
:1035D0002046009502F062FA002876D194F83C006B
:1035E000012872D0012084F83C0020680168C907D6
:1035F00003D1016841F0010101602068016821F4F4
:1036000000610160212084F83D00102084F83E0014
:1036100000262664C4F824806785608D20852D48A7
:10362000E0622B464A465146204601F049FE90B9D9
:10363000206841698069009036E02A464946204664
:1036400002F0DEFA50B1206C042804D12068016831
:1036500041F4007101600120BDE8F88F606A2168C3
:1036600000780861606A401C6062618D491E618556
:10367000218D491E89B2218522685369DB435B078E
:103680000BD451B100781061606A401C6062608D9B
:10369000401E6085208D401E20852A4649462046D2
:1036A00002F0D6F90028CED1208D0028C5D154F8DB
:1036B0003D0B016841F400710160202004F81E09EF
:1036C000E67766770020C7E7FFE70220C4E700003F
:1036D000020010000000FFFFF8B500250446009529
:1036E00090F83D0020287DD14A4846F2A81600688F
:1036F000B0FBF6F000EBC00606EB001020260090B1
:103700000098401E009010D020688069C043800758
:10371000F6D594F83C00012879D0012084F83C00CB
:1037200020680768FF070AD00DE044F8305F667331
:10373000A573206940F020002061257339E00768F7
:1037400047F0010707602068076827F400670760F3
:10375000212084F83D00102084F83E002564626238
:103760006385608D20852C48E0626164208DD0B334
:10377000616B2A48C863616B2948C864606B056443
:10378000606B4564606B8564606B05652268238DA2
:103790001032616A606BFEF72DFF60B184F83D6006
:1037A00084F83E5054F8400F40F0100044F80409EB
:1037B00025700120F8BD2068016841F48061016036
:1037C0002068016841F48071016084F83C502068F1
:1037D000416841F4407141602068416841F40061F2
:1037E000416001E013E001E00020F8BD20680168BD
:1037F00041F4806101602068016841F480710160DA
:1038000084F83C502068416841F4E061E8E7022018
:10381000F8BD00000C0000200000FFFF894D0008EB
:10382000494D0008704770472DE9FF4F83B09A4615
:10383000DDE9119793460446DDF84080FFF700F874
:10384000054694F83D00202870D1192301227149C2
:103850002046009502F022F90028F5D194F83C00AA
:10386000012863D0012084F83C0020680168C90762
:1038700003D1016841F0010101602068016821F471
:1038800000610160222084F83D00402084F83E0061
:1038900000262664C4F82480A4F82A90608D208530
:1038A0005D48E062CDE9007553465A4620460499CA
:1038B00001F00CFF00287CD1208DD0B1012821D04F
:1038C0000228206824D0416980690090208D032857
:1038D00069D801282BD0514902283B464FF00002FD
:1038E000009559D08846204602F0D8F8002860D1CB
:1038F0003CE02068416981690091016841F40071F0
:10390000016077E02068016821F480610160F0E7E0
:10391000016821F4806101602068016841F4006160
:103920000160206841698069009063E06FE02A4689
:103930003946204602F031F998BB20680069616A77
:1039400008704EE02068016841F400710160206851
:103950000069616A0870606A401C6062218D491EBE
:103960002185618D491E6185216838E020680168E4
:1039700021F48061016020680069616A0870606AF2
:10398000401C6062208D401E2085608D401E608539
:103990003B46002241460095204602F07FF800B9E0
:1039A000D0E706E0FFE72A463946204602F0F5F860
:1039B00018B1012007B0BDE8F08F20680069616A86
:1039C0000870606A401C6062218D491E2185618DEE
:1039D000491E618521684A69D24352070AD40969A0
:1039E0000170606A401C6062208D401E2085608DE1
:1039F000401E6085208D00287FF468AF202084F869
:103A00003D0084F83E6084F83C600020D2E702204C
:103A1000D0E70000020010000000FFFF04000100DA
:103A20002DE9FF4F83B09A46DDE91089934604469D
:103A3000FEF706FF00250646009594F83D00202875
:103A40007ED1614846F2A81120270068B0FBF1F052
:103A500000EBC00101EB001000900098401E0090A8
:103A600010D020688069C0438007F6D594F83C00E8
:103A7000012865D0012084F83C0020680168C9074E
:103A80000AD00DE044F8305F6773A573206940F0F9
:103A900020002061257382E0016841F0010101608E
:103AA0002068016821F400610160222084F83D0053
:103AB000402084F83E002564C4F82480A4F82A90AD
:103AC000608D20854148E062208D4FF0230800285A
:103AD0005CD0A16B3E48C863A16B3E48C864A06B34
:103AE0000564A06B4564A06B8564A06B05652168C7
:103AF000238D1031626AA06BFEF77CFD58B184F80B
:103B00003D7084F83E5054F8400F40F0100044F8E7
:103B10000409257043E0CDE9008653465A46204605
:103B2000049901F0D3FDA0B1A06BFEF729FDA06BB5
:103B300000B1C5632068016821F48061016000E084
:103B40003FE0258565852068016821F0010101605D
:103B500025E0208D0128206813D0416841F4805170
:103B60004160206841698169009184F83C50416856
:103B700041F4807141602068416841F40061416016
:103B80001DE0016821F480610160EAE7CDE900866B
:103B900053465A462046049901F098FD18B1012079
:103BA00007B0BDE8F08F2068416981690091016824
:103BB00041F40071016084F83D7084F83C500020AD
:103BC000EEE70220ECE700000C0000200000FFFF01
:103BD000894D0008494D00082DE9FF4F83B09A46F2
:103BE000DDE9119793460446DDF84080FEF728FE94
:103BF000054694F83D0020287FD119230122404931
:103C00002046009501F04AFF002876D194F83C0048
:103C1000012872D0012084F83C0020680168C9079F
:103C200003D1016841F0010101602068016821F4BD
:103C300000610160212084F83D00402084F83E00AE
:103C400000262664C4F82480A4F82A90608D20857C
:103C50002C48E062CDE9007553465A462046049947
:103C600001F0B2FD70B930E02A463946204601F035
:103C7000C7FF58B1206C042804D12068016841F4C2
:103C800000710160012007B0BDE8F08F606A216813
:103C900000780861606A401C6062218D491E89B20B
:103CA0002185628D521E628522685369DB435B0762
:103CB0000BD469B100781061606A401C6062208D8D
:103CC000401E2085608D401E6085208D0028CBD150
:103CD0002A463946204601F0BBFE0028CAD154F8D6
:103CE0003D0B016841F400710160202004F81E09B9
:103CF000E67766770020C6E7FFE70220C3E700000B
:103D0000020010000000FFFF2DE9FF4F83B00025E7
:103D1000DDE910989A46934604460095FEF790FD1B
:103D2000074694F83D0020287ED15348202601689C
:103D300046F2A810B1FBF0F000EBC00101EB00105F
:103D400000900098401E009010D020688069C04309
:103D50008007F6D594F83C00012865D0012084F84E
:103D60003C0020680168C9070AD00DE044F8305FC4
:103D70006673A573206940F02000206125733AE046
:103D8000016841F0010101602068016821F40061CF
:103D90000160212084F83D00402084F83E00256425
:103DA000C4F82490A4F82A80608D20853348E0620E
:103DB000208DD0B3616B3248C863616B3148C864F1
:103DC000606B0564606B4564606B8564606B056562
:103DD0002268238D1032616A606BFEF70BFC70B1B4
:103DE00084F83D6084F83E5054F8400F40F01000D5
:103DF00044F804092570012007B0BDE8F08F2320A6
:103E0000CDE9000753465A462046049901F0DCFCF0
:103E1000A8B1606BFEF7B4FB606B00B1C5632068AE
:103E2000016821F4806101E023E019E0016025854B
:103E300065852068016821F001010160DBE72068E9
:103E400041698169009184F83C50416841F4807176
:103E500041602068416841F4006141600020CBE787
:103E600084F83D6084F83E5054F8400F40F0400024
:103E7000BEE70220C0E700000C0000200000FFFFAA
:103E8000894D0008494D0008F0B587B0044614215B
:103E90006846FCF774FA1A49206888422DD11948FF
:103EA000016841F004010160016801F0040105911D
:103EB000016841F0010101600068122400F0010076
:103EC00005904FF400700125032604278DE8F100CA
:103ED00069460D48FEF7D8FB28028DE8F1006946D7
:103EE0000A48FEF7D1FB07481030016841F4000191
:103EF0000160006800F40000059007B0F0BD00000C
:103F0000005C0040303802400008024000000240DF
:103F1000704770472DE9F84F9A4615468846044683
:103F2000FEF78EFC064694F83D0020287ED1B8F1BD
:103F3000000F32D08DB394F83C00012876D00120D8
:103F400084F83C0020680168C90703D1016841F08A
:103F5000010101602068016821F4006101602220F4
:103F600084F83D00202784F83E704FF00009C4F823
:103F70004090C4F824806585608D20853E48E062CD
:103F80002068016841F48061016053464A463B491C
:103F90002046009601F082FD10B10120BDE8F88FA7
:103FA00020684D4641698069009024E032465146C0
:103FB000204601F0F2FDD0BB20680069616A0870FC
:103FC000606A401C6062218D491E8AB22285618D23
:103FD000491E618521684B69DB435B070BD46AB1DD
:103FE00009690170606A401C6062208D401E208556
:103FF000608D401E6085208D0028D7D1D0460BE013
:10400000204600F0F3FF90B9FEF71AFC811B4145F2
:104010001ED8B8F1000F1BD020684069C043C0060D
:10402000EED4206841690091016801E021E01AE0C6
:1040300041F0010101602068016821F480610160A4
:1040400084F83D7084F83E5084F83C500020A5E789
:10405000204640F8305F47738573006940F02001C7
:10406000216484F83C502068016821F4806101607B
:1040700093E7022092E700000000FFFF020001002A
:1040800070B5044690F83D0020285BD161B15AB16B
:1040900094F83C00012855D0012084F83C002068A9
:1040A0000368DB0702D005E0012070BD036843F020
:1040B000010303602068036823F400630360222087
:1040C00084F83D00202684F83E6000252564616266
:1040D0006285608D20851C48E062A16B1B48C86327
:1040E000A16B1B48C864A06B0564A06B4564A06B02
:1040F0008564A06B05652168238D1031626AA06B11
:10410000FEF778FA58B184F83D6084F83E5054F8D0
:10411000400F40F0100044F804092570C4E72068FF
:10412000016841F48061016084F83C502068416876
:1041300041F4407141602068416841F40061416090
:10414000002070BD022070BD0000FFFF894D0008F7
:10415000494D00082DE9F8430F4690F83D10994667
:10416000164604462820884378D1B7B1AEB194F8FA
:104170003C00012872D0012084F83C00206841688E
:1041800021F44071416094F83D0041492A2807D04C
:1041900094F83D00292815D026E00120BDE8F883D9
:1041A0002068426812051FD5A26BEAB1426822F46A
:1041B00000624260A06B0165A06BFEF7E1F998B167
:1041C000A06B0FE02068426812050DD5426822F40A
:1041D00000624260606B38B10165606BFEF7D0F938
:1041E00010B1606B016D884720680168C90703D171
:1041F000016841F0010101602068016821F400615B
:1042000001602A2084F83D004FF0200884F83E80A9
:104210000025256467626685608D2085C4F82C9032
:10422000A16B1C48C863A16B1B48C864A06B0564E4
:10423000A06B05652168238D1031626AA06BFEF7C3
:10424000D9F960B184F83D8084F83E5054F8400FAD
:1042500040F0100044F8040925709EE715E020683E
:10426000016841F4806101602068416981690091C1
:1042700084F83C50416841F4006141602068416825
:1042800041F440714160002088E7022086E7000089
:104290008D4C0008894D0008494D00082DE9F84370
:1042A0000F4690F83D10994616460446282088434C
:1042B00078D1B7B1AEB194F83C00012872D001209A
:1042C00084F83C002068416821F44071416094F812
:1042D0003D0041492A2807D094F83D00292815D0EF
:1042E00026E00120BDE8F8832068426812051FD54A
:1042F000A26BEAB1426822F400624260A06B0165E1
:10430000A06BFEF73DF998B1A06B0FE02068426802
:1043100012050DD5426822F400624260606B38B12C
:104320000165606BFEF72CF910B1606B016D884779
:1043300020680168C90703D1016841F001010160EB
:104340002068016821F400610160292084F83D00A3
:104350004FF0200884F83E8000252564676266855A
:10436000608D2085C4F82C90616B1C48C863616B1C
:104370001B48C864606B0564606B05652268238D0B
:104380001032616A606BFEF735F960B184F83D80E8
:1043900084F83E5054F8400F40F0100044F80409EF
:1043A00025709EE715E02068016841F48061016096
:1043B000206841698169009184F83C50416841F46A
:1043C000407141602068416841F400614160002013
:1043D00088E7022086E700008D4C0008894D000820
:1043E000494D00082DE9F84F9A4616460F460446F7
:1043F000FEF726FA054694F83D0020287DD1002FCF
:1044000055D0002E53D094F83C00012875D00120DF
:1044100084F83C0020680168C90703D1016841F0B5
:10442000010101602068016821F400610160212020
:1044300084F83D004FF0200984F83E904FF00008CA
:10444000C4F8408067626685608D20853A48E062E6
:104450002068016841F480610160384F534642464C
:1044600039462046009501F019FB00BB20684646FE
:104470004169806900902069B0F5404F37D15346BB
:10448000002239462046009501F008FB78B92068E3
:104490004169806900902AE02A465146204601F091
:1044A000AFFB28B12068016821F4806101602CE035
:1044B000606A216800780861606A401C6062618DF2
:1044C000491E6185218D491E89B221852268536963
:1044D000DB435B070BD469B100781061606A401C54
:1044E0006062608D401E6085208D401E2085208D7D
:1044F0000028D1D15346002200E01AE04FF4823167
:104500002046009501F0CAFA10B10120BDE8F88FED
:1045100021686FF4806048612068016821F480613F
:10452000016084F83D9084F83E6084F83C6000208F
:10453000ECE70220EAE700000000FFFF02000100B4
:1045400070B5044690F83D0020285BD161B15AB1A6
:1045500094F83C00012855D0012084F83C002068E4
:104560000368DB0702D005E0012070BD036843F05B
:10457000010303602068036823F4006303602120C3
:1045800084F83D00202684F83E60002525646162A1
:104590006285608D20851C48E062616B1B48C863A2
:1045A000616B1B48C864606B0564606B4564606B3D
:1045B0008564606B05652268238D1032616A606BCB
:1045C000FEF718F858B184F83D6084F83E5054F86E
:1045D000400F40F0100044F804092570C4E720683B
:1045E000016841F48061016084F83C5020684168B2
:1045F00041F4407141602068416841F400614160CC
:10460000002070BD022070BD0000FFFF894D000832
:10461000494D000802488168027811448160704762
:10462000000000200B4810B5016841F400710160E2
:10463000016841F480610160016841F480710160AA
:10464000032000F061F8002000F006F800F024F8E4
:10465000002010BD003C024070B50D4D04464FF4E3
:104660007A712878B1FBF0F00A490968B1FBF0F0E3
:1046700000F0E4FA48B9102C07D200222146501E5F
:1046800000F022F800206C6070BD012070BD0000B9
:10469000000000200C0000200A4808B5016841F421
:1046A00080410160006800F4804000900548001FD0
:1046B000016841F080510160006800F08050009076
:1046C00008BD000044380240F0B40E4B1B680C4695
:1046D000C3F30223C3F10705042D00D90425191DD6
:1046E000072901D2002300E0DB1E012606FA05F1AE
:1046F000491E214099409E40761E16403143F0BC31
:1047000004F0F1BC0CED00E0064900F00702086877
:104710004FF6FF03184040EA0220034A10430860A6
:10472000704700000CED00E00000FA052DE9F047AD
:104730000E46050065D0DFF81481D8F80000F7B206
:1047400000F00F00B04207D288F80070D8F80000DF
:1047500000F00F00B04254D128683D4C810712D5BB
:10476000400703D5206840F4E05020602878000717
:1047700003D5206840F4604020602068A96820F0DC
:10478000F000084320602878C0072DD030496868C1
:104790000839012812D0022813D0032811D0096843
:1047A000890700292DDA216821F0030101432160E6
:1047B000FEF746F8814641F2883A0EE0096889031F
:1047C000EFE709688901ECE7FEF73AF8A0EB090189
:1047D000514502D90320BDE8F0872068696800F0E0
:1047E0000C00B0EB810FEFD1D8F80010404601F07B
:1047F0000F01B14207D90770006800F00F00B04206
:1048000001D00120E7E72878400705D52068E9684E
:1048100020F4E050084320602878000706D520687F
:10482000296920F4604040EAC100206000F028F8C7
:104830002168084AC1F30311515CC8400649086069
:1048400006480068FFF708FF0020C4E7003C02406C
:10485000083802402CAC00080C00002004000020A6
:104860000448054900680968044AC1F38221515C83
:10487000C84070470C000020083802403CAC0008DB
:10488000154810B5006810F00C02144813D0411000
:10489000042A0FD0082A0ED10F4C241F2268236847
:1048A00002F03F025B0207D52068C0F38810A0FB2E
:1048B000010106E0084610BD2168C1F38811A1FB83
:1048C00000010023FBF711FD2168C1F30141491CE0
:1048D0004900B0FBF1F010BD083802400024F4009C
:1048E0002DE9F84F04006ED02078DFF83C93C00724
:1048F000A9F104054AD009F104000168C1F381015E
:10490000012908D00068C0F3810002280AD1D9F833
:104910000000400206D52868800337D5606800286B
:10492000E1D033E06068B0F5803F10D0B0F5A02F43
:10493000286810D020F480302860286820F4802077
:1049400028606068A8B1FDF77BFF06460DE0286887
:1049500040F48030F4E740F480202860F7E700BF9F
:10496000FDF76EFF801B642873D828688003F7D595
:104970000CE0FDF765FF064605E000BFFDF760FFB0
:10498000801B6428F0D828688003F7D42078DFF8EB
:104990009C8280074FF0000A3ED5A348001D0168A5
:1049A00011F00C0F08D00068C0F3810002280BD171
:1049B000D9F80000400207D42868800716D5E068BF
:1049C000012800D112E02BE1E068B8B10120C8F85D
:1049D0000000FDF735FF064605E000BFFDF730FF9C
:1049E000801B0228C0D828688007F7D5286821696D
:1049F00020F0F80040EAC10028600DE0C8F800A0EF
:104A0000FDF71EFF064604E0FDF71AFF801B022893
:104A10001FD828688007F7D42078000722D5824E57
:104A200083486169703671B101210160FDF708FFAB
:104A3000074604E0FDF704FFC01B022809D83068D0
:104A40008007F7D50EE0C0F800A0FDF7F9FE074695
:104A500005E082E0FDF7F4FEC01B02287DD8306837
:104A60008007F7D42078400768D5DFF8BCB100276D
:104A70000BF13C0BDBF80000C0000BD4DBF800109E
:104A800041F08051CBF80010DBF80000012700F066
:104A900080500090674E3068C00510D4306840F4F4
:104AA00080703060FDF7CCFE009005E0FDF7C8FE99
:104AB0000099401A022850D83068C005F6D55A4EE1
:104AC000A0686C3601280FD00528306810D020F07F
:104AD00001003060306820F004003060A068B8B198
:104AE000FDF7AEFE00900FE0306840F00100F4E703
:104AF00040F004003060F7E7FDF7A2FE0099411A8C
:104B000041F28830814266D830688007F4D50EE0E3
:104B1000FDF796FE009007E0FDF792FE0099411A1E
:104B200041F28830814256D830688007F4D42FB1E2
:104B3000DBF8001021F08051CBF80010A069C8B359
:104B40003949091D0968C1F3810102294AD00228A7
:104B5000504607D0C8F8600000E03CE0FDF770FE6A
:104B600004463BE04746C8F86000FDF769FE06468C
:104B700005E000BFFDF764FE801B02282BD82868E3
:104B80008001F7D4D4E907010843A16A2A4A4908F9
:104B900002EB0141626A41EA8211084394F82C1049
:104BA00040EA0161C9F8001001203866FDF748FEAF
:104BB000044606E036E000BFFDF742FE001B022877
:104BC00009D828688001F7D52CE000BFFDF738FE32
:104BD000001B022802D90320BDE8F88F2868800155
:104BE000F4D41FE00128F7D0D9F80000E26900F4FE
:104BF0008001914214D1226A00F03F0191420FD10D
:104C000047F6C071626A0140914209D1A26A00F47C
:104C10004031914204D1E16A00F07060884201D0D5
:104C20000120D9E70020D7E70438024000004742BE
:104C3000800E4742007000400000FFFF10B5401E8C
:104C4000B0F1807F01D3012010BD4FF0E0246061FE
:104C50000F21601704F047FA0020A06107202061AF
:104C6000002010BD70B5074C0146002025788D420C
:104C700006D021706068FFF7EFFC002800D0257097
:104C800070BD000000000020FEE7000038B5806B1A
:104C9000002190F83D202B4B46F2A8141B68B3FB73
:104CA000F4F3C3EBC30303EB830300933BB15B1E3D
:104CB000009303681B689B0505D5009BF6E7036C12
:104CC00043F020030364436B03B1D963836B03B1E7
:104CD000D96303681C6824F480641C604185436BBD
:104CE00003B11965836B03B1196503681C6824F06F
:104CF00001041C6090F83D402023602C0BD0282438
:104D000034EA02020FD080F83D3080F83E1000BF38
:104D1000FDF73AFF38BD80F83D3080F83E10016461
:104D2000FDF7A0FD38BD0268136843F0010313606E
:104D30000268136843F480631360016380F83D40A8
:104D4000E6E700000C00002070B5846B0025616B65
:104D500001B1CD63A16B01B1CD63FDF723FC022846
:104D600011D02068016821F48061016065852020F0
:104D700084F83D0084F83E50206C40F01000206420
:104D80002046FDF701FF70BD2DE9F041846B94F8DA
:104D90003D2094F83E50E16A2068436823F4407354
:104DA0004360636B002003B1D863A36B03B1D86386
:104DB000212333EA02074FF022060CD036EA02071D
:104DC00001D1202D07D094F83E20002A21D0628DF9
:104DD000012A20D024E021684D6825F400654D604B
:104DE00060852820292A02D02A2A07D00CE02363D4
:104DF00084F83D002046FFF78CF805E0266384F830
:104E00003D002046FFF784F82068416841F4407176
:104E10004160BDE8F0812268136823F48063136069
:104E20002268536823F44073536011F5803F06D025
:104E3000082904D0B1F12A4F01D0202904D12168DA
:104E40000A6842F400720A6021684A6822F48052BB
:104E50004A6021684A6822F400624A606085216CD9
:104E600019B12046FDF790FED3E7202184F83D10CC
:104E700094F83E1084F83E00402905D012202063AB
:104E80002046FDF7FEFFC4E720632046FEF7CAFC7C
:104E9000BFE7000070B5044690F83D0094F83E105E
:104EA000102901D0402906D1222804D121680A689E
:104EB00022F400620A60282131EA00024FF0000566
:104EC0004FF0200626D021684968090505D46028DE
:104ED00003D084F83D6084F83E5025632068416823
:104EE000090537D5416821F400614160606B90F895
:104EF00035203C49012A11D00165606BFDF740FB6C
:104F000038B32068016821F00101016084F83D6038
:104F1000606B1CE0256384F83D10DFE7A06B016542
:104F2000A06BFDF72DFBA0B120684169C94349067C
:104F300005D40069616A0870606A401C606220687C
:104F4000016821F00101016084F83D60A06B016DF2
:104F5000884710E094F83D10602910D04169C9439A
:104F6000490605D40069616A0870606A401C606285
:104F70002046FDF709FE206CC1071CD115E084F81E
:104F80003D6025644169C943490605D40069616AE9
:104F90000870606A401C60622068016821F00101AD
:104FA00001602046FDF75EFCE5E7810703D4410779
:104FB00001D4000704D52068416821F4E061416014
:104FC00094F83D00216C49070BD5282809D10648E3
:104FD000E062256384F83D6084F83E502046FDF78A
:104FE0004FFF70BD8D4C00080000FFFF01684A694B
:104FF000D24352050FD46FF480624A61002140F819
:10500000301F202242738173026942F00402026160
:105010000173012070470020704710B5C26A438DAC
:105020000168042B06D0438D032B08D0438D022B3F
:105030001DD012E04A6822F480624A600CE04B689E
:1050400023F480634B60042A06D0022A04D001684E
:105050000A6822F480620A6001680969426A117074
:10506000416A491C4162418D491E418510BD012A9A
:1050700030D0102A2ED0042A30D0022A2ED00A682E
:1050800042F400720A6001680969426A1170416A5B
:10509000491C4162428D521E4285026812690A70A3
:1050A000416A491C4162418D491E418501684A6837
:1050B00022F440724A60202180F83D1090F83E2092
:1050C0000021402A80F83E100CD012210163FDF728
:1050D000D8FE10BD0A6822F48062D3E70A6842F461
:1050E0008062CFE70163FEF79DFB10BD38B590F8F5
:1050F0003D10222914D1418D032912D90168096973
:10510000426A1170416A491C4162418D491E4185C4
:10511000418D032904D10068416821F48061416018
:1051200038BDC26A022AFBD0012901D00029F7D17B
:10513000274946F2A81300220968B1FBF3F101EBFD
:105140008101009101682023009C641E009422D0FC
:105150000C68A405F8D40C6824F480640C60016821
:105160004C6824F4E0644C6001680969446A217069
:10517000416A491C4162418D491E418580F83D309C
:1051800090F83E1080F83E2040291DD01221016386
:10519000FDF777FE38BD046C44F0200404644C68CD
:1051A00024F4E0644C6001680969446A2170416A32
:1051B000491C4162418D491E418580F83D3080F88F
:1051C0003E20FDF7E1FC38BD0263FEF72BFB38BD46
:1051D0000C0000202DE9F84F0446C06A1E46934695
:1051E0000D4621680A6842F480620A60082807D0E8
:1051F000012805D010F5803F02D0206B112804D182
:105200002068016841F4807101604FF001195B462C
:10521000002249462046009600F040FC4FF40078FA
:1052200040B120680068C00501D5C4F84080032063
:10523000BDE8F88F2069DFF884A0B0F5804F0FD06B
:105240000620216800EAD51747F0F00008613346D0
:105250005A460AF10601204600F054FC58BB03E010
:10526000E8B240F001001CE02168E8B20861334672
:105270005A465146204600F045FCE0B92068416995
:1052800081690091016841F4807101605B460022F0
:1052900049462046009600F001FC0028C1D147F0A5
:1052A000F1002168086133465A465146204600F015
:1052B00029FC0028BCD00120BAE700000200010050
:1052C000F8B50446C06A1E460D461746082807D0A2
:1052D000012805D010F5803F02D0206B122804D1A0
:1052E0002068016841F480710160134600224FF08C
:1052F00001112046009600F0D1FB40B12068006803
:10530000C00502D54FF4007020640320F8BD206969
:10531000B0F5804F0ED00620216800EAD51040F08D
:10532000F000086133463A460B49204600F0EAFB9C
:1053300078B902E005F0FE0000E0E8B221680861FB
:10534000054933463A46891F204600F0DBFB00281A
:10535000DCD00120F8BD00000800010010B5C16AD2
:1053600090F83D20212A0BD1428D52B1416A02684A
:1053700009781161416A491C4162418D491E41858C
:1053800010BD00222023082910D020290ED011F5AD
:10539000803F0BD001684C6824F4E0644C6011211C
:1053A000016380F83E2080F83D300EE001684C68D3
:1053B00024F4E0644C6001680C6844F400740C60F0
:1053C000026380F83D3080F83E20FDF75BFD10BDA4
:1053D00010B590F83D1090F83E30C26A048DB4B11B
:1053E000212903D0402B11D122290FD1418DE1B3C6
:1053F00090F83E10402942D0416A02680978116154
:10540000416A491C4162418D491E418510BD2129D7
:10541000E8D120230021082A13D0202A11D012F528
:10542000803F0ED00268546824F4E0645460112276
:10543000026380F83E1080F83D3000BFFDF722FD8A
:1054400010BD0268546824F4E06454600268146873
:1054500044F400741460016380F83D3090F83E20FD
:1054600080F83E10402AE9D100E002E0FEF7DBF9C7
:1054700010BD0068416821F48061416010BDBDE845
:10548000104000F0D3B8000078B590F83E50C26AE2
:10549000036B90F83D6000240168222E7AD1066DDE
:1054A0000EB9402D76D0056D1DB90569B5F5404F93
:1054B00009D0458D05B3468D384D012E0ED0438D54
:1054C000022B3AD05DE04A698A6900920A6842F488
:1054D00080720A60016D491C016578BDAA4213D132
:1054E0000A6822F480620A6001684A68120503D5DE
:1054F0000A6822F4806216E04A698A6900920A68A2
:1055000042F400720A6039E0082A10D0202A0ED036
:10551000122B0AD0042A03D0022A01D0102AE7D184
:105520000A6842F480620A6024E0012AE0D00A6836
:1055300022F480620A600168DEE7042A21D0022A90
:105540001FD0102A1DD00B6823F480630B60016804
:105550000B6843F400630B6001684B681B0509D5B9
:10556000AA4212D0012A10D0082A0ED0102A0CD03C
:10557000202A0AD001684A6989690091046578BDCA
:1055800008E00B6843F48063E5E74A6842F4805220
:105590004A60EFE7486988690090F0E70000FFFF84
:1055A00090F83E10402910D00169B1F5804F19D014
:1055B000016DA9B3016D012910D1416C5FF0F102B9
:1055C00001F4407142EAD11106E0016D0029416CFD
:1055D00005D0C9B241F0010100680161704701F0D6
:1055E000FE01F9E790F83D102129416C09D0C9B2BC
:1055F00041F0010102681161416B29B1C96B49B9E0
:1056000002E001F0FE01F5E7816B0029E6D0C96BED
:105610000029E3D00068416841F4006141607047AF
:10562000FFE7416CF02201F44071CBE710B590F830
:105630003D10026D22B3026D012A2FD0026D022AA5
:105640001DD1222931D0428D0AB1212933D0428D7A
:10565000002A14D1212912D101684A6822F4E0629B
:105660004A6001680A6842F400720A60002101631E
:10567000202280F83D2080F83E10FEF7D4F810BDBF
:10568000C16C0129816C02D0C1F3072108E00268D6
:10569000C9B21161016D891C016510BD816CC9B26F
:1056A00002681161016D491CF6E70068016841F468
:1056B0008071016010BD416A026809781161416A18
:1056C000491C4162418D491E418510BD2DE9F84FAD
:1056D0000446006889460B9D01689846174641F4C8
:1056E000806101602068016841F48071016000956B
:1056F0004FF0011B0022594620460A9B00F0CEF9CC
:105700004FF4007A40B120680068C00501D5C4F8A4
:1057100040A00320BDE8F88F216809F0FE00086171
:105720002B46284920460A9A00F0ECF9F0BB206885
:105730004169806900902A4620460A9900F060FA83
:1057400040B1206C04283AD12068016841F400710E
:10575000016034E0FEB2B8F1010F09D02168380AC7
:1057600008612A4620460A9900F04AFA0028E8D142
:10577000206806612A4620460A9900F041FA00286E
:10578000DFD12068016841F480710160009500223A
:10579000594620460A9B00F081F90028B3D12168C0
:1057A00009F0FF0040F00100086100E007E02B462F
:1057B000044920460A9A00F0A5F90028AAD0012041
:1057C000A8E70000020001002DE9F8430446006844
:1057D0000D46DDE9089701689846164641F4807148
:1057E00001604B4600224FF001112046009700F067
:1057F00055F948B120680068C00502D54FF4007023
:1058000020640320BDE8F883216805F0FE000861EC
:105810003B464A461549204600F074F988B920688D
:105820004169806900903A464946204600F0E8F90F
:1058300048B1206C042804D12068016841F400714B
:1058400001600120DEE7F5B2B8F1010F09D021684F
:10585000300A08613A464946204600F0D1F900284E
:10586000E7D1206805610020CCE7000002000100BC
:105870002DE9F04190F83D40C26A002320261C4FDC
:1058800001686FF48065082A01D0202A01D1282CF4
:1058900004D0212C16D04D61BDE8F081C7624A6862
:1058A00022F4E0624A6001684D6101680A6822F4EE
:1058B00080620A60036380F83D6080F83E30FDF747
:1058C000DFFAE9E7C7622122026380F83D6080F8D1
:1058D0003E304A6822F4E0624A6001684D61016826
:1058E0000A6822F480620A60FEF713FBD4E7000026
:1058F0000000FFFFF8B590F83D600446006841687D
:1059000021F4E0614160206800254169009101684F
:1059100041F0010101602068016821F480610160AB
:1059200020684168090520D5474F222E48D02A2EED
:1059300046D0616B096849686185618D19B1216C38
:1059400041F004012164416821F400614160606B11
:10595000FCF72AFE012808D0606B0765606BFCF736
:105960000FFE10B1606B016D8847608D08B3206831
:105970004169C943490708D40069616A0870606ACF
:10598000401C6062608D401E608520684169C9438B
:10599000490608D40069616A0870606A401C606248
:1059A000608D401E6085608D18B1206C40F0040051
:1059B0002064206C00B32046BDE8F840FFF76ABAC7
:1059C000A16B096849686185618D19B1216C41F04D
:1059D00004012164416821F400614160A06BFCF77F
:1059E000E3FD0128C1D0A06B0765A06BFCF7C8FDE3
:1059F0000028BAD0A06BB6E72A2E06D1256328204E
:105A000084F83D002046FEF783FA94F83D102020EC
:105A100028290DD0216B222901D0222E07D1256300
:105A200084F83D0084F83E502046FEF771FAF8BD38
:105A30000649E162256384F83D0084F83E50204623
:105A4000FDF71EFAF8BD00008D4C00080000FFFFB6
:105A500070B516460D4604460DE02046FFF7C6FA1F
:105A600008B1012070BD681C05D0FCF7E9FE801B61
:105A7000A84207D835B120684069C0434007ECD43C
:105A8000002070BD002044F8300F20216173A07306
:105A9000216941F0200121612073E2E72DE9F047FF
:105AA0001E4690460D460446C1F30747DDF8209098
:105AB00008E0701C06D0FCF7C3FEA0EB0900B04262
:105AC0000FD876B12068012F18D0806925EA000030
:105AD0000004000C14D000214145EAD00020BDE8AC
